{
	"counter.sol": {
		"Counter": {
			"abi": [
				{
					"inputs": [],
					"stateMutability": "nonpayable",
					"type": "constructor"
				},
				{
					"inputs": [
						{
							"internalType": "uint256",
							"name": "x",
							"type": "uint256"
						}
					],
					"name": "add",
					"outputs": [],
					"stateMutability": "nonpayable",
					"type": "function"
				},
				{
					"inputs": [],
					"name": "counter",
					"outputs": [
						{
							"internalType": "uint256",
							"name": "",
							"type": "uint256"
						}
					],
					"stateMutability": "view",
					"type": "function"
				},
				{
					"inputs": [],
					"name": "get",
					"outputs": [
						{
							"internalType": "uint256",
							"name": "",
							"type": "uint256"
						}
					],
					"stateMutability": "view",
					"type": "function"
				}
			],
			"devdoc": {
				"kind": "dev",
				"methods": {},
				"version": 1
			},
			"evm": {
				"assembly": "    /* \"counter.sol\":78:334  contract Counter {... */\n  mstore(0x40, 0x80)\n    /* \"counter.sol\":131:173  constructor() {... */\n  callvalue\n  dup1\n  iszero\n  tag_1\n  jumpi\n  0x00\n  dup1\n  revert\ntag_1:\n  pop\n    /* \"counter.sol\":165:166  0 */\n  0x00\n    /* \"counter.sol\":155:166  counter = 0 */\n  dup1\n  sstore\n    /* \"counter.sol\":78:334  contract Counter {... */\n  dataSize(sub_0)\n  dup1\n  dataOffset(sub_0)\n  0x00\n  codecopy\n  0x00\n  return\nstop\n\nsub_0: assembly {\n        /* \"counter.sol\":78:334  contract Counter {... */\n      mstore(0x40, 0x80)\n      callvalue\n      dup1\n      iszero\n      tag_1\n      jumpi\n      0x00\n      dup1\n      revert\n    tag_1:\n      pop\n      jumpi(tag_2, lt(calldatasize, 0x04))\n      shr(0xe0, calldataload(0x00))\n      dup1\n      0x1003e2d2\n      eq\n      tag_3\n      jumpi\n      dup1\n      0x61bc221a\n      eq\n      tag_4\n      jumpi\n      dup1\n      0x6d4ce63c\n      eq\n      tag_5\n      jumpi\n    tag_2:\n      0x00\n      dup1\n      revert\n        /* \"counter.sol\":183:249  function add(uint x) external {... */\n    tag_3:\n      tag_6\n      tag_7\n      calldatasize\n      0x04\n      tag_8\n      jump\t// in\n    tag_7:\n      tag_9\n      jump\t// in\n    tag_6:\n      stop\n        /* \"counter.sol\":101:120  uint public counter */\n    tag_4:\n      tag_10\n      sload(0x00)\n      dup2\n      jump\n    tag_10:\n      mload(0x40)\n        /* \"#utility.yul\":345:370   */\n      swap1\n      dup2\n      mstore\n        /* \"#utility.yul\":333:335   */\n      0x20\n        /* \"#utility.yul\":318:336   */\n      add\n        /* \"counter.sol\":101:120  uint public counter */\n      mload(0x40)\n      dup1\n      swap2\n      sub\n      swap1\n      return\n        /* \"counter.sol\":259:332  function get() public view returns (uint) {... */\n    tag_5:\n        /* \"counter.sol\":295:299  uint */\n      0x00\n        /* \"counter.sol\":318:325  counter */\n      sload\n        /* \"counter.sol\":259:332  function get() public view returns (uint) {... */\n      jump(tag_10)\n        /* \"counter.sol\":183:249  function add(uint x) external {... */\n    tag_9:\n        /* \"counter.sol\":241:242  x */\n      dup1\n        /* \"counter.sol\":233:240  counter */\n      sload(0x00)\n        /* \"counter.sol\":233:242  counter+x */\n      tag_18\n      swap2\n      swap1\n      tag_19\n      jump\t// in\n    tag_18:\n        /* \"counter.sol\":223:230  counter */\n      0x00\n        /* \"counter.sol\":223:242  counter = counter+x */\n      sstore\n      pop\n        /* \"counter.sol\":183:249  function add(uint x) external {... */\n      jump\t// out\n        /* \"#utility.yul\":14:194   */\n    tag_8:\n        /* \"#utility.yul\":73:79   */\n      0x00\n        /* \"#utility.yul\":126:128   */\n      0x20\n        /* \"#utility.yul\":114:123   */\n      dup3\n        /* \"#utility.yul\":105:112   */\n      dup5\n        /* \"#utility.yul\":101:124   */\n      sub\n        /* \"#utility.yul\":97:129   */\n      slt\n        /* \"#utility.yul\":94:146   */\n      iszero\n      tag_23\n      jumpi\n        /* \"#utility.yul\":142:143   */\n      0x00\n        /* \"#utility.yul\":139:140   */\n      dup1\n        /* \"#utility.yul\":132:144   */\n      revert\n        /* \"#utility.yul\":94:146   */\n    tag_23:\n      pop\n        /* \"#utility.yul\":165:188   */\n      calldataload\n      swap2\n        /* \"#utility.yul\":14:194   */\n      swap1\n      pop\n      jump\t// out\n        /* \"#utility.yul\":381:603   */\n    tag_19:\n        /* \"#utility.yul\":446:455   */\n      dup1\n      dup3\n      add\n        /* \"#utility.yul\":467:477   */\n      dup1\n      dup3\n      gt\n        /* \"#utility.yul\":464:597   */\n      iszero\n      tag_26\n      jumpi\n        /* \"#utility.yul\":519:529   */\n      0x4e487b71\n        /* \"#utility.yul\":514:517   */\n      0xe0\n        /* \"#utility.yul\":510:530   */\n      shl\n        /* \"#utility.yul\":507:508   */\n      0x00\n        /* \"#utility.yul\":500:531   */\n      mstore\n        /* \"#utility.yul\":554:558   */\n      0x11\n        /* \"#utility.yul\":551:552   */\n      0x04\n        /* \"#utility.yul\":544:559   */\n      mstore\n        /* \"#utility.yul\":582:586   */\n      0x24\n        /* \"#utility.yul\":579:580   */\n      0x00\n        /* \"#utility.yul\":572:587   */\n      revert\n        /* \"#utility.yul\":464:597   */\n    tag_26:\n        /* \"#utility.yul\":381:603   */\n      swap3\n      swap2\n      pop\n      pop\n      jump\t// out\n\n    auxdata: 0xa2646970667358221220ced8e076e2c5a8d03068ef417c713a3b7c5e11bc4f18f1fa17b576419c2aae7664736f6c634300081a0033\n}\n",
				"bytecode": {
					"linkReferences": {},
					"object": "6080604052348015600e575f80fd5b505f805560ee8061001e5f395ff3fe6080604052348015600e575f80fd5b5060043610603a575f3560e01c80631003e2d214603e57806361bc221a14604f5780636d4ce63c146068575b5f80fd5b604d6049366004607e565b606e565b005b60565f5481565b60405190815260200160405180910390f35b5f546056565b805f54607991906094565b5f5550565b5f60208284031215608d575f80fd5b5035919050565b8082018082111560b257634e487b7160e01b5f52601160045260245ffd5b9291505056fea2646970667358221220ced8e076e2c5a8d03068ef417c713a3b7c5e11bc4f18f1fa17b576419c2aae7664736f6c634300081a0033",
					"opcodes": "PUSH1 0x80 PUSH1 0x40 MSTORE CALLVALUE DUP1 ISZERO PUSH1 0xE JUMPI PUSH0 DUP1 REVERT JUMPDEST POP PUSH0 DUP1 SSTORE PUSH1 0xEE DUP1 PUSH2 0x1E PUSH0 CODECOPY PUSH0 RETURN INVALID PUSH1 0x80 PUSH1 0x40 MSTORE CALLVALUE DUP1 ISZERO PUSH1 0xE JUMPI PUSH0 DUP1 REVERT JUMPDEST POP PUSH1 0x4 CALLDATASIZE LT PUSH1 0x3A JUMPI PUSH0 CALLDATALOAD PUSH1 0xE0 SHR DUP1 PUSH4 0x1003E2D2 EQ PUSH1 0x3E JUMPI DUP1 PUSH4 0x61BC221A EQ PUSH1 0x4F JUMPI DUP1 PUSH4 0x6D4CE63C EQ PUSH1 0x68 JUMPI JUMPDEST PUSH0 DUP1 REVERT JUMPDEST PUSH1 0x4D PUSH1 0x49 CALLDATASIZE PUSH1 0x4 PUSH1 0x7E JUMP JUMPDEST PUSH1 0x6E JUMP JUMPDEST STOP JUMPDEST PUSH1 0x56 PUSH0 SLOAD DUP2 JUMP JUMPDEST PUSH1 0x40 MLOAD SWAP1 DUP2 MSTORE PUSH1 0x20 ADD PUSH1 0x40 MLOAD DUP1 SWAP2 SUB SWAP1 RETURN JUMPDEST PUSH0 SLOAD PUSH1 0x56 JUMP JUMPDEST DUP1 PUSH0 SLOAD PUSH1 0x79 SWAP2 SWAP1 PUSH1 0x94 JUMP JUMPDEST PUSH0 SSTORE POP JUMP JUMPDEST PUSH0 PUSH1 0x20 DUP3 DUP5 SUB SLT ISZERO PUSH1 0x8D JUMPI PUSH0 DUP1 REVERT JUMPDEST POP CALLDATALOAD SWAP2 SWAP1 POP JUMP JUMPDEST DUP1 DUP3 ADD DUP1 DUP3 GT ISZERO PUSH1 0xB2 JUMPI PUSH4 0x4E487B71 PUSH1 0xE0 SHL PUSH0 MSTORE PUSH1 0x11 PUSH1 0x4 MSTORE PUSH1 0x24 PUSH0 REVERT JUMPDEST SWAP3 SWAP2 POP POP JUMP INVALID LOG2 PUSH5 0x6970667358 0x22 SLT KECCAK256 0xCE 0xD8 0xE0 PUSH23 0xE2C5A8D03068EF417C713A3B7C5E11BC4F18F1FA17B576 COINBASE SWAP13 0x2A 0xAE PUSH23 0x64736F6C634300081A0033000000000000000000000000 "
				},
				"gasEstimates": {
					"creation": {
						"codeDepositCost": "47600",
						"executionCost": "5102",
						"totalCost": "52702"
					},
					"external": {
						"add(uint256)": "24481",
						"counter()": "2281",
						"get()": "2300"
					}
				},
				"methodIdentifiers": {
					"add(uint256)": "1003e2d2",
					"counter()": "61bc221a",
					"get()": "6d4ce63c"
				}
			},
			"storageLayout": {
				"storage": [
					{
						"astId": 3,
						"contract": "counter.sol:Counter",
						"label": "counter",
						"offset": 0,
						"slot": "0",
						"type": "t_uint256"
					}
				],
				"types": {
					"t_uint256": {
						"encoding": "inplace",
						"label": "uint256",
						"numberOfBytes": "32"
					}
				}
			},
			"userdoc": {
				"kind": "user",
				"methods": {},
				"version": 1
			}
		}
	}
}